S016000044656275675C6674645F33305F66772E6D6F74EC
S31508024000D4DE0020814002084844524D8000000058
S315080240100000000000400208000000013300010011
S315080240200011192000000000312E3033332E3020C3
S315080240302020202020202020202020202020202070
S3150802404020202020202020200001300303102220D7
S31508024050000002034CEA0100000000004654442D09
S31508024060333020202020202020202020202020201D
S3150802407020202020202020202020202000000000B0
S3150802408080B582B000AF72B6234B7B60234B3B6090
S3150802409007E03B681A1D3A607A68111D7960126852
S315080240A01A603B681E4A9342F3D31E4B3B6004E0F8
S315080240B03B681A1D3A6000221A603B681A4A934204
S315080240C0F6D31A4B7B601A4B3B6007E03B681A1D16
S315080240D03A607A68111D796012681A603B68154A57
S315080240E09342F3D3144B3B6005E03B681A1D3A60D2
S315080240F04FF0A5321A60114A3B689342F5D3DFF8AE
S3150802410040D0BFF34F8F0FF051FC11F06DFD00BF89
S315080241100837BD4680BD00BF7CE3030810000020B7
S31508024120C8120020C8120020D4BE002034F60308A4
S315080241300000001098340010D4BE0020D4DC002001
S30908024140D4DE002099
S31508024144000000000000000000000000000000005B
S31508024154000000000000000000000000000000004B
S31508024164000000000000000000000000000000003B
S31508024174000000000000000000000000000000002B
S31508024184000000000000000000000000000000001B
S31508024194000000000000000000000000000000000B
S315080241A400000000000000000000000000000000FB
S315080241B400000000000000000000000000000000EB
S315080241C400000000000000000000000000000000DB
S315080241D400000000000000000000000000000000CB
S315080241E400000000000000000000000000000000BB
S315080241F4000000000000000000000000D4DE0020D9
S315080242048140020881180308713F0308713F0308B5
S31508024214713F0308713F0308000000000000000014
S315080242240000000000000000713F0308713F030804
S3150802423400000000713F030819200308713F0308B0
S31508024244713F0308713F0308713F0308713F03086E
S31508024254713F0308713F0308713F0308713F03085E
S31508024264713F0308713F0308713F0308713F03084E
S31508024274713F0308713F0308713F0308713F03083E
S31508024284713F0308690A0010713F0308C115030840
S3150802429491160308713F0308713F0308713F030827
S315080242A4713F0308713F0308713F0308713F03080E
S315080242B4713F0308713F0308713F0308713F0308FE
S315080242C4713F0308713F0308713F0308713F0308EE
S315080242D4713F0308713F0308713F0308713F0308DE
S315080242E4713F0308713F0308713F03080D0E00105E
S315080242F4713F0308713F0308713F0308713F0308BE
S315080243040000000000000000713F0308713F030823
S31508024314713F0308713F0308713F0308713F03089D
S31508024324713F0308713F0308713F0308713F03088D
S31508024334713F03080000000000000000713F0308F3
S31508024344713F0308713F03080000000000000000E3
S31508024354000000000000000000000000713F03088E
S31508024364713F0308713F0308713F0308713F03084D
S31508024374713F0308713F0308713F0308713F03083D
S31508024384713F03080000000000000000713F0308A3
S3150802439810B5054C237833B9044B13B10448AFF367
S315080243A800800123237010BDC812002000000000F7
S315080243B83086030808B5034B1BB103490348AFF314
S315080243C8008008BD00000000CC12002030860308D1
S315080243D881F0004102E000BF83F0004330B54FEA9E
S315080243E841044FEA430594EA050F08BF90EA020F0B
S315080243F81FBF54EA000C55EA020C7FEA645C7FEA9E
S31508024408655C00F0E2804FEA5454D4EB5555B8BFC0
S315080244186D420CDD2C4480EA020281EA030382EA31
S31508024428000083EA010180EA020281EA0303362DC3
S3150802443888BF30BD11F0004F4FEA01314FF4801C96
S315080244484CEA113102D0404261EB410113F0004FA8
S315080244584FEA03334CEA133302D0524263EB43035F
S3150802446894EA050F00F0A780A4F10104D5F1200EFD
S315080244780DDB02FA0EFC22FA05F2801841F1000158
S3150802448803FA0EF2801843FA05F359410EE0A5F12C
S3150802449820050EF1200E012A03FA0EFC28BF4CF05D
S315080244A8020C43FA05F3C01851EBE37101F0004513
S315080244B807D54FF0000EDCF1000C7EEB00006EEB20
S315080244C80101B1F5801F1BD3B1F5001F0CD34908AA
S315080244D85FEA30004FEA3C0C04F101044FEA445201
S315080244E812F5800F80F09A80BCF1004F08BF5FEA88
S315080244F8500C50F1000041EB045141EA050130BD68
S315080245085FEA4C0C404141EB010111F4801FA4F10A
S315080245180104E9D191F0000F04BF01460020B1FA5F
S3150802452881F308BF2033A3F10B03B3F120020CDA97
S315080245380C3208DD02F1140CC2F10C0201FA0CF075
S3150802454821FA02F10CE002F11402D8BFC2F1200CDA
S3150802455801FA02F120FA0CFCDCBF41EA0C01904090
S31508024568E41AA2BF01EB0451294330BD6FEA0404D9
S315080245781F3C1CDA0C340EDC04F11404C4F12002C4
S3150802458820FA04F001FA02F340EA030021FA04F3D6
S3150802459845EA030130BDC4F10C04C4F1200220FA2D
S315080245A802F001FA04F340EA0300294630BD21FA6B
S315080245B804F0294630BD94F0000F83F4801306BF31
S315080245C881F480110134013D4EE77FEA645C18BF25
S315080245D87FEA655C29D094EA050F08BF90EA020FBC
S315080245E805D054EA000C04BF1946104630BD91EAB4
S315080245F8030F1EBF0021002030BD5FEA545C05D1B7
S315080246084000494128BF41F0004130BD14F58004F5
S315080246183CBF01F5801130BD01F0004545F0FE4169
S3150802462841F470014FF0000030BD7FEA645C1ABF9E
S31508024638194610467FEA655C1CBF0B46024650EAD5
S31508024648013406BF52EA033591EA030F41F4002101
S3150802465830BD00BF90F0000F04BF0021704730B587
S315080246684FF4806404F132044FF000054FF000015C
S3150802467850E700BF90F0000F04BF0021704730B51D
S315080246884FF4806404F1320410F0004548BF4042F2
S315080246984FF000013EE700BF42004FEAE2014FEA47
S315080246A831014FEA02701FBF12F07F4393F07F4F22
S315080246B881F06051704792F0000F14BF93F07F4F54
S315080246C8704730B54FF4607401F0004521F0004197
S315080246D820E700BF50EA010208BF704730B54FF01D
S315080246E800050AE050EA010208BF704730B511F022
S315080246F8004502D5404261EB41014FF4806404F15A
S3150802470832045FEA915C3FF4DCAE4FF003025FEADB
S31508024718DC0C18BF03325FEADC0C18BF033202EB63
S31508024728DC02C2F1200300FA03FC20FA02F001FABD
S3150802473803FE40EA0E0021FA02F11444C1E600BF5C
S3150802474870B54FF0FF0C4CF4E06C1CEA11541DBF0F
S315080247581CEA135594EA0C0F95EA0C0F00F0DEF8DA
S315080247682C4481EA030621EA4C5123EA4C5350EABF
S31508024778013518BF52EA033541F4801143F4801310
S3150802478838D0A0FB02CE4FF00005E1FB02E506F0A1
S315080247980042E0FB03E54FF00006E1FB03569CF0F6
S315080247A8000F18BF4EF0010EA4F1FF04B6F5007FFC
S315080247B864F5407404D25FEA4E0E6D4146EB06066E
S315080247C842EAC62141EA55514FEAC52040EA5E50F7
S315080247D84FEACE2EB4F1FD0C88BFBCF5E06F1ED8A1
S315080247E8BEF1004F08BF5FEA500E50F1000041EBD8
S315080247F8045170BD06F0004646EA010140EA020085
S3150802480881EA0301B4EB5C04C2BFD4EB0C0541EAA6
S31508024818045170BD41F480114FF0000E013C00F3BB
S31508024828AB8014F1360FDEBF002001F0004170BDDF
S31508024838C4F10004203C35DA0C341BDC04F11404F8
S31508024848C4F1200500FA05F320FA04F001FA05F284
S3150802485840EA020001F0004221F0004110EBD37051
S3150802486821FA04F642EB06015EEA430E08BF20EA7D
S31508024878D37070BDC4F10C04C4F1200500FA04F320
S3150802488820FA05F001FA04F240EA020001F00041B2
S3150802489810EBD37041F100015EEA430E08BF20EA25
S315080248A8D37070BDC4F1200500FA05F24EEA020E6D
S315080248B820FA04F301FA05F243EA020321FA04F09C
S315080248C801F0004121FA04F220EA020000EBD37053
S315080248D85EEA430E08BF20EAD37070BD94F0000F53
S315080248E80FD101F00046400041EB010111F4801F87
S315080248F808BF013CF7D041EA060195F0000F18BF38
S31508024908704703F00046520043EB030313F4801F73
S3150802491808BF013DF7D043EA0603704794EA0C0F2D
S315080249280CEA135518BF95EA0C0F0CD050EA410643
S3150802493818BF52EA4306D1D181EA030101F00041C0
S315080249484FF0000070BD50EA410606BF10461946E8
S3150802495852EA430619D094EA0C0F02D150EA0136F4
S3150802496813D195EA0C0F05D152EA03361CBF104635
S3150802497819460AD181EA030101F0004141F0FE41D4
S3150802498841F470014FF0000070BD41F0FE4141F458
S31508024998780170BD70B54FF0FF0C4CF4E06C1CEA58
S315080249A811541DBF1CEA135594EA0C0F95EA0C0F0D
S315080249B800F0A7F8A4EB050481EA030E52EA0335C8
S315080249C84FEA013100F088804FEA03334FF08055E9
S315080249D845EA131343EA12634FEA022245EA111516
S315080249E845EA10654FEA00260EF000419D4208BFC7
S315080249F8964244F1FD0404F5407402D25B084FEA74
S31508024A083202B61A65EB03055B084FEA32024FF41F
S31508024A1880104FF4002CB6EB020E75EB030E22BF7C
S31508024A28B61A754640EA0C005B084FEA3202B6EB3C
S31508024A38020E75EB030E22BFB61A754640EA5C00EB
S31508024A485B084FEA3202B6EB020E75EB030E22BF7B
S31508024A58B61A754640EA9C005B084FEA3202B6EB7C
S31508024A68020E75EB030E22BFB61A754640EADC003B
S31508024A7855EA060E18D04FEA051545EA16754FEA9D
S31508024A8806164FEAC30343EA52734FEAC2025FEABB
S31508024A981C1CC0D111F4801F0BD141EA00014FF04A
S31508024AA800004FF0004CB6E711F4801F04BF01431B
S31508024AB80020B4F1FD0C88BFBCF5E06F3FF6AFAE37
S31508024AC8B5EB030C04BFB6EB020C5FEA500C50F1C7
S31508024AD8000041EB045170BD0EF0004E4EEA11314A
S31508024AE814EB5C04C2BFD4EB0C0541EA045170BD51
S31508024AF841F480114FF0000E013C90E645EA060E95
S31508024B088DE60CEA135594EA0C0F08BF95EA0C0FC2
S31508024B183FF43BAF94EA0C0F0AD150EA01347FF40A
S31508024B2834AF95EA0C0F7FF425AF104619462CE7E1
S31508024B3895EA0C0F06D152EA03353FF4FDAE104644
S31508024B48194622E750EA410618BF52EA43067FF495
S31508024B58C5AE50EA41047FF40DAF52EA43057FF425
S31508024B68EBAE12E74FEA4102B2F1E04324BFB3F5CE
S31508024B78001CDCF1FE5C0DD901F0004C4FEAC002BC
S31508024B884CEA5070B2F1004F40EB830008BF20F0A0
S31508024B980100704711F0804F21D113F13872BCBF5A
S31508024BA801F00040704741F480114FEA5252C2F1AF
S31508024BB81802C2F1200C10FA0CF320FA02F018BFF8
S31508024BC840F001004FEAC1234FEAD32303FA0CFC4B
S31508024BD840EA0C0023FA02F34FEA4303CCE77FEADA
S31508024BE8625307D150EA01331EBF4FF0FE4040F424
S31508024BF84000704701F0004040F0FE4040F40000D3
S31508024C08704700BF7BB972B90029BEBF00204FF0B2
S31508024C18004106E008BF00281CBF6FF000414FF0AC
S31508024C28FF3000F0C5B9ADF1080C6DE904CE0029CC
S31508024C3809DB002B1ADB00F04DF8DDF804E0DDE9A4
S31508024C48022304B07047404261EB4101002B1BDB8B
S31508024C5800F040F8DDF804E0DDE9022304B040423A
S31508024C6861EB4101524263EB43037047524263EBDD
S31508024C78430300F02FF8DDF804E0DDE9022304B067
S31508024C88404261EB41017047524263EB430300F02D
S31508024C9821F8DDF804E0DDE9022304B0524263EBA9
S31508024CA84303704753B94AB9002908BF00281CBFED
S31508024CB84FF0FF314FF0FF3000F07AB9ADF1080C2A
S31508024CC86DE904CE00F006F8DDF804E0DDE9022312
S31508024CD804B070472DE9F0478C460D460446089EEF
S31508024CE8002B51D18A4217466DD9B2FA82FEBEF115
S31508024CF8000F0BD0CEF1200C01FA0EF520FA0CFCA7
S31508024D0802FA0EF74CEA050C00FA0EF44FEA174AAD
S31508024D18250CBCFBFAF81FFA87F90AFB18CC45EAF0
S31508024D280C4508FB09F3AB420AD9ED1908F1FF321B
S31508024D3880F02381AB4240F22081A8F102083D4463
S31508024D48ED1AA4B2B5FBFAF00AFB105544EA054473
S31508024D5800FB09F9A14509D9E41900F1FF3380F0E6
S31508024D680A81A14540F2078102383C44A4EB0904AA
S31508024D7840EA08400021002E61D024FA0EF40023E6
S31508024D8834607360BDE8F0878B4207D9002E54D089
S31508024D98002186E821000846BDE8F087B3FA83F1C0
S31508024DA8002940F08E80AB4202D3824200F2FA8092
S31508024DB8841A65EB03050120AC46002E3FD086E827
S31508024DC81010BDE8F08712B90127B7FBF2F7B7FA50
S31508024DD887FEBEF1000F34D1EB1B3A0C1FFA87FC8B
S31508024DE80121B3FBF2F8250C02FB183345EA034501
S31508024DF80CFB08F3AB4207D9ED1908F1FF3002D2CA
S31508024E08AB4200F2D1808046ED1AA3B2B5FBF2F0A6
S31508024E1802FB105543EA05440CFB00FCA44507D9D6
S31508024E28E41900F1FF3302D2A44500F2B880184605
S31508024E38A4EB0C0440EA08409DE731463046BDE833
S31508024E48F087CEF1200405FA0EF307FA0EF720FAD0
S31508024E5804F83A0C25FA04F448EA0308B4FBF2F112
S31508024E684FEA184502FB11441FFA87FC45EA04452E
S31508024E7801FB0CF3AB4200FA0EF409D9ED1901F15C
S31508024E88FF3080F08A80AB4240F2878002393D447F
S31508024E98EB1A1FFA88F5B3FBF2F002FB103345EA60
S31508024EA8034500FB0CF3AB4207D9ED1900F1FF38AD
S31508024EB86FD2AB426DD902383D44EB1A40EA01413A
S31508024EC88FE7C1F1200722FA07F88B4005FA01F4A1
S31508024ED848EA030320FA07FE4FEA134CFD404EEA56
S31508024EE8040EB5FBFCF94FEA1E440CFB19551FFACA
S31508024EF883F844EA054509FB08F4AC4202FA01F2CA
S31508024F0800FA01FA08D9ED1809F1FF3043D2AC4282
S31508024F1841D9A9F102091D442D1B1FFA8EFEB5FBBC
S31508024F28FCF00CFB10554EEA054400FB08F8A045B0
S31508024F3807D9E41800F1FF3529D2A04527D902383E
S31508024F481C4440EA0940A4EB0804A0FB02894C4524
S31508024F58C6464D4615D312D056B1BAEB0E0364EBC4
S31508024F68050404FA07F7CB401F43CC403760746040
S31508024F780021BDE8F0871846F8E69046E0E6C245FD
S31508024F88EAD2B8EB020E69EB03050138E4E72846CC
S31508024F98D7E7404691E78146BEE7014678E70238F1
S31508024FA83C4445E7084608E7A8F102083D442BE7CA
S31508024FB8704700BF00230C4A13700C490B800C4A31
S31508024FC813804B8053808B809380CB80D380094A89
S31508024FD81380094B03F5807100221A805A60083338
S31508024FE88B42FAD1704700BF2C720020E4120020C7
S31508024FF8247200201A72002018710020304B1B7880
S31508025008002B5BD02DE9F04F83B02E4A10882E4A22
S3150802501811682E4A126801EB020ADFF8B8800425DD
S315080250280022019200920126294FDFF8ACC0994660
S315080250382CE00133102B20D006FA03F131EA0402D8
S31508025048F7D037F8152092B231EA0202F1D11F30A9
S31508025058424200F01F0002F01F0258BF504280B2B7
S315080250680EEB03022CF830200CEBC002C2F804A09F
S31508025078CDF80490CDF80090DBE737F81530ABF891
S31508025088003008F102080135082D0AD0C346B8F8D7
S31508025098004005F6FC7E4FEA0E1E1FFA8EFE002316
S315080250A8CAE7019B23B9009B2BB903B0BDE8F08F69
S315080250B8044B1880F7E709F0E9F8F6E7704700BFE6
S315080250C8768800201A7200206C87002090BA002081
S315080250D80CBA0020E412002018710020204B1B7815
S315080250E8FBB10F2812D91F281DD92F2828D93F28DE
S315080250F833D81C4BDA8992B23038012303FA00F006
S3150802510830EA02030CBF012300230AE0154B1A8969
S3150802511892B2012303FA00F030EA02030CBF012314
S315080251280023184670470F4B5A8992B21038012342
S3150802513803FA00F030EA02030CBF01230023F0E762
S31508025148084B9A8992B22038012303FA00F030EA0A
S3150802515802030CBF01230023E3E70023E1E700BFAC
S315080251682C7200200CBA00201E4B1B8813F0800FE5
S3150802517824D01D4B197859BB10B401221A701B4C3E
S3150802518804231B4834F8022B20F8132030F813207E
S3150802519892B2002A18BF01210133082BF2D111B99C
S315080251A80022144B1A700F4B1B8813F0800F02D17A
S315080251B800220D4B1A705DF8044B7047094B1B8881
S315080251C813F0800FF9D1084B1B78002BF5D004E0B1
S315080251D8044B1B8813F0800F03D10022024B1A7066
S315080251E87047704730860020F0120020247200208B
S315080251F80CBA00202C72002008B5184B1B6813F04D
S31508025208010F26D0164BD3F8A4301AB2002A18DD95
S315080252189BB2144A9387144BB3F8E0329BB2DBB9B4
S31508025228104B9B8F9BB240F2523293420DD80D4BCC
S315080252389B8F9BB2B3F5487F0ED2082013F008FA63
S3150802524808BD0022074B9A87E5E7082013F0F8F904
S3150802525808BD0022034B9A8708BD00BFAC8B002005
S31508025268687200200CBA002088AF00200B4B1B6816
S3150802527813F0010F0DD00A4BD3F8C4301AB2002A1C
S3150802528803DD9BB2074AD38770470022054BDA87A4
S3150802529870470022034BDA87704700BFAC8B0020A1
S315080252A8687200200CBA002008B51B4B1B786BB332
S315080252B81A4BB3F8AA319BB2042B27D0184BD3F84A
S315080252C884309BB2174AA2F84230B2F842309BB2EF
S315080252D8154A12889A4208D2104BB3F8E2329BB2A0
S315080252E8C3B9092013F0ACF908BD0E4BB3F842301E
S315080252F89BB20E4A12889A420CD90D4B1B8813F494
S31508025308007F07D0092013F0A3F908BD0022054B30
S31508025318A3F8422008BD00BFA88B002088AF00204A
S31508025328687200200CBA0020EC120020EE12002047
S315080253382472002008B5FFF75FFFFFF797FFFFF70C
S31508025348B3FF08BD224BB3F8A8319BB2002B2BD169
S315080253581F4BB3F8AA319BB2022B15D0042B1CD0CB
S31508025368012B08D04FF47A721A4B1A804FF46172DD
S31508025378194B1A80704740F2CC42164B1A8040F2F3
S315080253885142154B1A80704740F2ED52114B1A805A
S3150802539840F25552104B1A8070474FF6FF730D4A62
S315080253A813800D4A13807047094BB3F8A811094AA6
S315080253B81180B3F8A8319BB203EBC303074A82FBF1
S315080253C80312DB17C3EBA203034A1380704700BF15
S315080253D888AF0020EC120020EE1200206766666687
S315080253E838B50023284819465A018418815061603D
S315080253F80133072BF8D10CF051FA40F63451002044
S315080254080CF04EFA00200CF04AFA204BB3F8983101
S31508025418DBB2032B2FD00BF017F90BF055FB1C4DFB
S31508025428D5F880101B4C0222204609F007FBD5F84E
S3150802543880100A2204F1400009F000FBD5F8801012
S315080254480A2204F1600009F0F9FA4FF47A72114651
S3150802545804F1800009F0F2FA4FF47A72114604F15F
S31508025468A00009F0EBFA4FF47A72114604F1C0006B
S3150802547809F0E4FA38BD40F68B6101200CF010FAFF
S3150802548801200CF00CFAC6E76872002088AF0020E3
S31508025498E09800207072002008B50BF0F5FA04208F
S315080254A813F0E6F8052013F0E3F8062013F0E0F8FF
S315080254B808BD000008B52249B1F86C2112B2D20219
S315080254C8204880FB02E31344D217C2EB63324FF03B
S315080254D8007393FBF2F21C4B1A60B1F8682112B2F8
S315080254E8D2031A4B83FB02E3D217C2EBA332184B39
S315080254F81A60B1F862311BB2DB0380FB0320184439
S31508025508DB17C3EB6033134A1360B1F870319BB2E9
S315080255185BB90B4BB3F860110F4A1180B3F86031C7
S31508025528C3F34E030D4A138008BD0D4BD3F88010FA
S31508025538034BB3F8702192B20A4809F07FFAE8E7F2
S3150802554888AF002035679ACD4072002071E11E297E
S315080255584C7200205C7200204672002056720020A7
S31508025568E0980020B072002010B51F4CB4F88421C8
S3150802557812B2D2021D4981FB02031344D217C2EBA7
S3150802558863324FF0007393FBF2F2194B1A60B4F8C0
S31508025598802112B2D203174B83FB0203D217C2EB3E
S315080255A8A332154B1A60B4F87A311BB2DB0381FBB6
S315080255B803211944DB17C3EB6133104A1360104BF6
S315080255C8D3F88010B4F8882192B20E4809F036FA50
S315080255D8B4F878210C4B1A80B4F87831C3F34E0321
S315080255E80A4A138010BD00BF88AF002035679ACDD6
S315080255F86072002071E11E29387200205872002054
S31508025608E0980020D07200203C72002034720020F4
S315080256181F4B1A88013292B21A801E4BB3F9003010
S315080256281D49B1F900105B1A1C49086803440B6046
S31508025638B2F5805F2AD31B13194A13801BB2194A7B
S3150802564802FB03F3DB135B429BB2174AA2F86831E3
S31508025658B2F868319BB2154AA2F86831B2F86831CD
S315080256681BB2DB03124A82FB0312DB17C3EBA23314
S31508025678104A13600023064A1380084A13600E4A22
S31508025688938C23F001031B041B0C9384704700BFF9
S3150802569836720020487200205C7200205072002080
S315080256A844720020708E010084A7002088AF00206B
S315080256B871E11E294C72002088B900201F4B1A88EE
S315080256C8013292B21A801E4BB3F900301D49B1F95C
S315080256D800105B1A1C49086803440B60B2F5805F20
S315080256E82AD31B13194A13801BB2194A02FB03F35E
S315080256F8DB135B429BB2174AA2F88031B2F88031B3
S315080257089BB2154AA2F88031B2F880311BB2DB0384
S31508025718124A82FB0312DB17C3EBA233104A136041
S315080257280023064A1380084A13600E4A938C23F00C
S3150802573802031B041B0C9384704700BF487300209E
S315080257484A730020587200203072002054720020D2
S31508025758708E010084A7002088AF002071E11E29F7
S315080257683872002088B9002008B500233A4A1380FF
S315080257783A4A13703A4A3B4B1A603B4B1B6813F07A
S31508025788010F52D0374B1B685B68002B5AD0374A31
S3150802579813601A68002A58D05A68002A57D09A6895
S315080257A8002A56D03248334A0260334A4260334A9C
S315080257B88260334AC260334A0261334A4261264AE0
S315080257C88261324AC261324A0262324A4262324AC3
S315080257D88262324AC262324A0263324A4263324AAF
S315080257E88263324AC263324A0264324A4264324A9B
S315080257F88264324AC264324A0265324A4265324A87
S315080258088265324AC265324A0266324A4266324A72
S315080258188266324AC266324A02671B689847034654
S3150802582888B101210D4A11700DE0104609F058F9A0
S31508025838034640B10B4B186809F0A8F90346002835
S31508025848A0D100E00023184608BD0023FBE7002381
S31508025858F9E70023F7E700BFC8730020F212002011
S315080258680040010850730020F0ED00E04C73002058
S315080258785473002088B900200CBA002088AF00208B
S31508025888D8530020797D0308D57B03080100001048
S31508025898E5500208890000104D990208F599020890
S315080258A8C59A020830770020787700208878002081
S315080258B8897800203477002038780020B8810020BB
S315080258C89C770020E4770020F07C0020F9A30208E0
S315080258D871AC0208F1760020F0760020C19502081C
S315080258E8005B002008B5044B1B7803B908BD034BB7
S315080258F81B685B689847F9E7F21200204C73002088
S3150802590808B5044B1B7803B908BD034B1B689B688B
S315080259189847F9E7F21200204C73002010B50A4C92
S3150802592800216185A18509480FF0CCFC238823F05C
S3150802593801031B041B0C2380054A138823F0010361
S315080259481B041B0C138010BD88B9002000340140C3
S315080259580CBA00200023094A1380094A1380094A07
S315080259681380094A1360094A1360094A1380642195
S31508025978084A1180084A1370704700BFD07300207E
S31508025988D2730020E2730020CC730020D87300205B
S31508025998DE730020D4730020DC73002008B53D4B63
S315080259A85B8D9BB247F2CC72934204D03A4B1B6882
S315080259B8002B68D108BD374B9B8D9BB2EBB9364B8A
S315080259C81B6813B10022344B1A60324B9B8D9BB26B
S315080259D8012B17D1314B1968314A11601A68314BB4
S315080259E81A6001222C4B1A602A4B9B8D9BB2022BFA
S315080259F811D10022284B1A6008BD264B9B8D9BB2F3
S31508025A08012B2FD0234B9B8D9BB2022B2FD0224BD7
S31508025A181B68012BCED1214B1B68224A12689B1A96
S31508025A28B3F5FA7F0FD31D4B1A681E4B1A60194B2A
S31508025A385B8813F4807F1FD0164A538823F4807331
S31508025A481B041B0C5380154B1B68154A12689B1AB4
S31508025A5844F61F629342ADD9FFF760FF00220E4B48
S31508025A681A6008BD0C4B1B68012BBDD0B2E70A4B5E
S31508025A781B68002B9ED0BCE7064A53889BB243F4A0
S31508025A8880735380DFE70022034B1A60FFF746FF4D
S31508025A9808BD00BF88B90020305300208489002039
S31508025AA8705300207C530020F8B58A4B5B8D9BB255
S31508025AB845F2AA52934205D00023874A1380874A99
S31508025AC81370F8BD0122854B1A70834BB3F900305F
S31508025AD8642B00F21E86DFE813F0650069001C06CF
S31508025AE81C061C061C061C061C061C061C06B700F9
S31508025AF81D01DF011C06980098001C061C061C06D8
S31508025B081C061C061C061C061C061C061C061C066D
S31508025B181C061C061C061C0698009E021C061C0669
S31508025B281C061C061C061C061C061C061C061C064D
S31508025B381C061C061C061C061C061C061C062E032E
S31508025B481C061C061C061C061C061C061C061C062D
S31508025B581C061C061C061C061C061C061C061C061D
S31508025B681C061C061C061C061C061C061C061C060D
S31508025B781C061C061C061C061C061C061C061C06FD
S31508025B881C061C061C061C061C061C061C061C06ED
S31508025B981C061C061C061C061C061C061C061C06DD
S31508025BA8F905040601224C4B1A80F8BD494B9B8D10
S31508025BB89BB2012B1CD0474B9B8D9BB2022B17D04D
S31508025BC8444B9B8D9BB2092B20D0424B9B8D9BB293
S31508025BD80A2B1FD03F4B9B8D9BB20C2B1AD03D4BE1
S31508025BE89B8D9BB2032B06D10F223B4B1A8002E0F0
S31508025BF80A22394B1A80374B9B8D9BB2142B10D02D
S31508025C08344B9B8D9BB2152B14D0F8BD1F22324BF1
S31508025C181A80F0E72022304B1A800022304B1A707D
S31508025C28E9E700232F4A13702F4A136032222A4BB8
S31508025C381A80F8BD01222B4B1A7000222A4B1A60C9
S31508025C483222254B1A80F8BD284B00229A61DA615E
S31508025C58274B1B8813F0010F05D11E4A13889BB2DE
S31508025C6843F0010313800023224A1380224A138031
S31508025C78224A13801D4AC2F88430214A1360214AEF
S31508025C8813600421204A1180124AD3851386538643
S31508025C981E4BB3F898319BB26BB1023B012B14D851
S31508025CA800220F4B1A704FF4FA62194B1A800C220B
S31508025CB8094B1A80F8BD074B9B8D9BB2022B0CBF6A
S31508025CC80E220B22044B1A80F8BD6322024B1A8055
S31508025CD8F8BD00BF88B90020D0730020DC73002005
S31508025CE8645300202C53002068530020E0980020B3
S31508025CF80CBA0020D2730020DE730020E27300205B
S31508025D08CC730020D8730020E073002088AF0020E7
S31508025D18D47300207F4BB3F84220C2F34E02524294
S31508025D289A614FF480521A620021D9615A627A49F5
S31508025D380A887A480088024492B20A80C3F88420FC
S31508025D480CF04EFA764BB3F90030042B00F2A08019
S31508025D58DFE803F0030E27447B0000226F4B1A8004
S31508025D684FF4FA626F4B1A8001226D4B1A80F8BDFE
S31508025D786C4B1B888BB90422684B1A806A4B1B78B2
S31508025D88002B3FF442AF0022684B1A600122634B8C
S31508025D981A800222624B1A80F8BD0022624B1A70D8
S31508025DA8F8BD5E4BB3F90030604A11680B441360BC
S31508025DB840F6376293427FF728AF4FF6FF72574B82
S31508025DC81A800022584B1A70594BB3F854309BB2B2
S31508025DD8584A53860322524B1A80F8BD524B1B78EF
S31508025DE8002B3FF412AF4B4BD3F8842092B24FF4F0
S31508025DF8616303FB02F31B0CC3F561639BB24D4A4D
S31508025E08D385D18D4C4B186800FA81F119600020A8
S31508025E18464B18600120414B1880138E03449BB2E7
S31508025E281386138E9BB2082B03D002223C4B1A8088
S31508025E38F8BDC1F3CF01D1853D4BB3F854309BB2B7
S31508025E4853860422364B1A80F8BD344BB3F9001030
S31508025E58364B1A6811441960364B5A8E92B2344B2D
S31508025E68B3F854309BB29A4204D0324A138E01339D
S31508025E789BB213862E4BB3F854309BB22D4A5386DF
S31508025E88B1F5003FFFF4C1AE63222C4B1A80F8BD68
S31508025E980022234B1A80F8BD1E4B00229A61DA614A
S31508025EA8274B1B78032B3FF6B0AEDFE803F0020A4E
S31508025EB853A6244B1A68244B1A600122204B1A70DF
S31508025EC8F8BD144A0024C2F884402049B1F87C3047
S31508025ED89BB2B1F87E1088B21B0341F2A16101FB9D
S31508025EE800F10913B3FBF1F35B4293614FF4805354
S31508025EF81362D4615362134B1B68134A12689B1ABE
S31508025F08B3F5FA6FFFF481AE114B1C8002220C4BD3
S31508025F181A70F8BDE0980020E2730020E0730020AA
S31508025F28D2730020D4730020E5730020CC730020B6
S31508025F380CBA002088B90020D8730020D073002034
S31508025F4864530020848900207453002088AF0020F7
S31508025F58245300209F490025C1F884509E4CB4F862
S31508025F687C309BB2B4F87E2090B21B0341F2A16240
S31508025F7802FB00F21213B3FBF2F35B428B614FF496
S31508025F8880530B62CD614B6294480288D1F88830F7
S31508025F98B4F8901141F34E0103FB01F3E91A9BB2D7
S31508025FA889B258BF4B428E4941F82230531C9BB2DC
S31508025FB80380B3F5805FFFF428AE0B1F01F57F5007
S31508025FC83C302A4653F8041F0A448342FAD112136C
S31508025FD8814BB3F898319BB2022B02BFA2F5D54280
S31508025FE82B3A92B24FF4616303FB02F2130C7D4A11
S31508025FF8D38503227C4B1A70F8BD764B0022C3F868
S3150802600884209A614FF480511962DA6159626322CF
S31508026018764B1A80F8BD6F4B00229A61DA61724B89
S315080260281B7813B1012B15D0F8BD714B1B8813F0D9
S31508026038010F05D16B4A13889BB243F001031380FB
S315080260486B4B1B8813F0010F3FF4DFAD0122664B39
S315080260581A70F8BD634B9B8D9BB20A2B33D05D4BE6
S315080260684FF480525A62DA69D3F850315B429A423F
S31508026078584BBABFD3F850315B42DB69554AD2F856
S315080260885021934244DD534BD3F85031514AD361D8
S31508026098514B5B899BB2002B47D04F4B5B899BB20E
S315080260A8C2F884304F4B1B8813F0010F7FF4ADAD4D
S315080260B8484B00229A61DA614FF480525A62632287
S315080260C84A4B1A80F8BD444B1B899BB2DBB1424B3B
S315080260D81A8992B2474940F28D6303FB02F20B888A
S315080260E803EB22230B803B4A002393613D4BB3F80B
S315080260F84030B2F84C1089B21BB21B0393FBF1F37A
S315080261081BB2D361ABE73B4A138810331380EAE71D
S31508026118304BDA69D3F850315B429A422D4BBABFF3
S31508026128D3F850315B42DB69B0E7324B1A88294B00
S31508026138C3F88420B6E7304B1B68042B3FF665ADD7
S31508026148DFE813F00500A200C600360250022B4B00
S315080261581B78002B7ED1204BB3F890315B04284A72
S315080261681268B3FBF2F3274A13600022264B1A6019
S315080261780023264A1370264A1370264A1370264A9B
S315080261881370264A1370264A1370264A1370264A2B
S315080261981370264A13804FF6FF7225490A80254945
S315080261A80B8025490A80254A1380254A1380254AE1
S315080261B81380254A1380124C28222168234808F09E
S315080261C83DFC28222168224808F038FC01220A4B9D
S315080261D81A60F8BDE098002088AF002024530020F2
S315080261E8F412002088B9002064530020D0730020D6
S315080261F80CBA0020E2730020685300202C530020B2
S31508026208B0890020285300206C5300205A530020D6
S31508026218625300201A530020225300205B530020A1
S31508026228635300201B530020235300205053002099
S315080262381200002010530020100000205853002096
S31508026248605300201853002020530020385300209A
S31508026258F8520020012B8BD1914902238B82914B4C
S31508026268F022A3F84C20B3F84C301BB28E4AC2F877
S315080262789C30D2F89C30B1F89C1089B2DB0393FBA8
S31508026288F1F3C2F8A03073E7884B1B781BB9864B23
S3150802629800229A61DA61834A13889BB243F00103A2
S315080262A81380834B1B8813F0010F3FF4AEAC814B66
S315080262B81A68814B1A600023804A1360804A136061
S315080262C8804A1360804A13600222804B1A60F8BD1E
S315080262D8764B1B78E3B90022734B9A61714B1B8E76
S315080262E89BB2002B64D1704AB2F84230C3F34E030C
S315080262F8D3616D4A002313624FF48053536274497B
S315080263080B687448006803449BB20B60C2F8843071
S31508026318714DA989714C09B2204612F0A5F9E98985
S3150802632809B26F4812F0A0F92369B3F5106F4ED96E
S315080263386C4B1B787BB100226A4B1A706A4B1B8816
S315080263481F2B08D85E49694A1288086802440A60F7
S315080263580133654A1380664B1B7823B10023654AC5
S315080263681380634A13700123634A1370634A1370CE
S315080263785A4B1A695F4B1B889A4203DD574B1A69AF
S315080263885C4B1A80554B1B69B3F5E06F41D2002264
S31508026398594B1A705A4B1B881F2B21D84749554AFD
S315080263A81288086802440A600133554A138017E0BE
S315080263B83D49B1F842309AB23A4B1B8E9BB203FB5F
S315080263C802F3504AA2FB03235B09CB6191E7434BCD
S315080263D81B69B3F5E06F1CD2474B1B78002BD6D145
S315080263E8464B1B7833B14FF6FF72404B1A80002290
S315080263F8424B1A7001233B4A13703D4A1370374BB6
S315080264081A693A4B1B889A4203DA344B1A69374B8C
S315080264181A80334B1B69B3F5106F40F285803A4BE5
S315080264281B787BB10022384B1A70384B1B881F2BF6
S3150802643808D82549364A1288086802440A60013388
S31508026448324A1380334B1B7823B10023324A13800E
S31508026458304A13700123314A1370314A1370204B9C
S315080264681A692D4B1B889A4203DD1D4B1A692A4B5A
S315080264781A801B4B1B69B3F5E06F77D20022274BAC
S315080264881A70284B1B881F2B57D80E49224A12887E
S31508026498086802440A600133224A13804DE000BFA5
S315080264A888AF002088B90020E09800202C530020E5
S315080264B80CBA0020848900207853002054530020FF
S315080264C85C530020145300201C53002068530020F4
S315080264D86C5300202853002048890020385300208E
S315080264E8F852002062530020605300201200002050
S315080264F85B530020505300205A5300206353002050
S31508026508585300201F85EB512253002020530020A0
S31508026518100000201B530020105300201A53002095
S3150802652823530020185300207C4B1B69B3F5E06FF0
S315080265381CD27B4B1B78002BA0D17A4B1B7833B124
S315080265484FF6FF72784B1A800022764B1A7001238F
S31508026558764A1370764A1370704B1A69724B1B88FF
S315080265689A4203DA6D4B1A696F4B1A80714B1B886C
S315080265781F2B0BD9704B1B881F2B07D96F4B1B88F0
S315080265881F2B03D96E4B1B881F2B0DD86D4B1B6807
S315080265986D4A12689B1A42F20F7293427FF635AB1E
S315080265A803226A4B1A60F8BD0322684B1A60F8BDC3
S315080265B8674B1B78012B10D0664A138823F0010310
S315080265C81B041B0C1380644B1B8813F0010F7FF402
S315080265D81CAB04225D4B1A60F8BD00225D4BA3F87A
S315080265E84C20E9E7544B1B885C4A1068B0FBF3F069
S315080265F885B25B4B1D804F4B1B885A4A1268B2FB01
S31508026608F3F294B2584B1C804D4B1B8857490968BC
S31508026618B1FBF3F18FB2444B1F80484B1E88544B8B
S315080266281B68B3FBF6F39EB2DFF858E1AEF80060D2
S31508026638A5420DD2B7420BD222462846661BB6F5A4
S31508026648807F05D99BB23946DF1BB7F5807F04D808
S315080266586322484B1A80FFF7D8BADFF8F8E0AEF893
S315080266687850AEF87A404FF08074B4FBF6F6B6B2B4
S31508026678B4FBF7F4A5B2404CA4F8B261024452102E
S31508026688C2F5006292B2A4F8AC21A4F8B0510B4440
S315080266985B10C3F500639BB2A4F8AE31B4F8B22115
S315080266A892B2364BA3F8B221B4F8AC2192B2A3F847
S315080266B8AC21B4F8B02192B2A3F8B021B4F8AE214D
S315080266C892B2A3F8AE2107F0F7FFC1E7214A138869
S315080266D823F001031B041B0C13806422254B1A8022
S315080266E8F8BD1D4B1B8813F0010F7FF48EAA244CA4
S315080266F8204611F00DF800236367164A53859385D9
S3150802670813865386138823F001031B041B0C138074
S31508026718F8BD0022174B1A80F8BD00BFF8520020B0
S315080267281A53002023530020100000202253002069
S315080267381B5300205853002060530020185300208A
S3150802674820530020848900207853002068530020AB
S315080267582C53002088B900200CBA00205C5300206C
S315080267681200002054530020505300201C530020C6
S3150802677814530020D073002088AF002084A7002075
S31508026788D099002010530020034B1B8813B1013BF4
S31508026798014A1380704700BFD473002070477047B8
S315080267A808B50821012005F071FD01280AD002283A
S315080267B807D10122094B1A70094A1388C3F30E0333
S315080267C8138008BD0022054B1A70054A13886FEA1A
S315080267D843436FEA53439BB2138008BD678600207A
S315080267E80CBA00200023124A1370124AA2F84C3037
S315080267F8114B4FF416721A8046225A800F4B1B8B7E
S315080268089BB2242B09D0482B0CD00D4B4FF411728E
S315080268189A8140F23A22DA8170474FF4FA72064BA5
S315080268281A80F2E740F2B632034B1A80EDE700BF48
S31508026838F87300200CBA0020E873002088AF0020FD
S31508026848FC730020074B1A68074BC3F86C21074AE2
S315080268581268C3F87021064A138823F44053138032
S31508026868704700BF20740020E09800201C7400209E
S3150802687898540020484B1A68484BC3F86C21484A72
S315080268881268C3F87021474B1B8813F4807F1DD002
S31508026898454BB3F900302BB1022B11D03F4BC3F845
S315080268A8702109E03D4BC3F87021404A138823F04A
S315080268B801031B041B0C138000223D4B1A60704708
S315080268C83C4B1A68354BC3F87021F5E7F0B4374ADA
S315080268D813889BB243F001031380374B1B68374A68
S315080268E8126883EAE371A1EBE37191422DD9002B71
S315080268F8ACBF1346534232490A8842F002020A805A
S31508026908304A127812F0400F25D12F4A1068C51757
S31508026918DF1700FB07F203FB0522A0FB030111445C
S315080269282A4BB3F90030C3F12002B3F1200420FA46
S3150802693803F301FA02F243EA02035CBF41FA04F4DA
S3150802694823431B4A1360F0BC70471D490A8822F084
S3150802695802020A80D4E71C4A1068C517DF1700FB2B
S3150802696807F203FB0522A0FB03011144174BB3F9EF
S315080269780020C2F12003B2F1200420FA02F201FA39
S3150802698803F342EA03025CBF41FA04F42243524281
S31508026998074B1A60D7E700BF20740020E09800204A
S315080269A81C740020585400202012002088B90020A0
S315080269B80C74002014740020A05400204C120020E5
S315080269C818740020745400201074002034740020AF
S315080269D808B5CC4B1B8813F4007F00F04081CA4ADD
S315080269E8127812B9C949097839B3C949098863298C
S315080269F823D86421C64A118023F04F0343F00F03B4
S31508026A08C04A13806421C34AA2F86810BF4A12789A
S31508026A18002A00F07A8223F02003BA4A1380BE4B72
S31508026A281A68BE4BC3F870210023BD4A1360BD4AD3
S31508026A3813606522B64B1A8008BDB54909887029BC
S31508026A4800F20D8101A050F821F000BF196C020866
S31508026A58676C0208676C0208676C0208676C0208AA
S31508026A68676C0208676C0208676C0208676C02089A
S31508026A78676C0208316C0208676C0208676C0208C0
S31508026A88676C0208676C0208676C0208676C02087A
S31508026A98676C0208676C0208676C0208416C020890
S31508026AA85B6C0208676C0208676C0208676C020866
S31508026AB8676C0208676C0208676C0208676C02084A
S31508026AC8676C0208716C02088B6C0208676C02080C
S31508026AD8676C0208676C0208676C0208676C02082A
S31508026AE8676C0208676C0208676C0208C96C0208B8
S31508026AF8E36C0208676C0208676C0208676C02088E
S31508026B08676C0208676C0208676C0208676C0208F9
S31508026B18676C02084D6D0208896D0208676C0208DF
S31508026B28676C0208676C0208676C0208676C0208D9
S31508026B38676C0208676C0208676C02089B6E020893
S31508026B48B76E0208676C0208676C0208676C020867
S31508026B58676C0208676C0208676C0208676C0208A9
S31508026B68676C0208676C0208676C0208676C020899
S31508026B78676C0208676C0208676C0208676C020889
S31508026B88676C0208676C0208676C0208676C020879
S31508026B98676C0208676C0208676C0208676C020869
S31508026BA8676C0208676C0208676C0208676C020859
S31508026BB8676C0208676C0208676C0208676C020849
S31508026BC8676C0208676C0208676C0208676C020839
S31508026BD8676C0208676C0208676C0208016A020891
S31508026BE8336F0208676C0208676C0208676C02084A
S31508026BF8676C0208676C0208676C0208676C020809
S31508026C08676C0208596F0208756F0208776F0208DF
S31508026C1823F04F033B4A138000223E4BA3F8682011
S31508026C280A223B4B1A8008BD0A223A4BA3F8682067
S31508026C381422374B1A8008BD23F04F0343F040034A
S31508026C48304A13801422334BA3F868201522304B96
S31508026C581A80354B1B8803F08703062B00D008BD1C
S31508026C681E222B4B1A8008BD23F06F0343F021031B
S31508026C78244A13801E22274BA3F868201F22244B76
S31508026C881A80294B1B8803F08F02072A0CD00F2A71
S31508026C980ED003F08602022A0ED013F0820FDED136
S31508026CA814221B4B1A8008BD2822194B1A8008BDC4
S31508026CB82822174B1A8008BD1422154B1A8008BDBC
S31508026CC823F06F0343F023030E4A13802822114B3D
S31508026CD8A3F8682029220E4B1A80134B1B8803F047
S31508026CE88F020F2A22D003F08702062A22D003F03F
S31508026CF88602022A22D013F0820FB0D11422044B3C
S31508026D081A8008BD985400202C72002000770020AB
S31508026D18885300200CBA002014740020E09800203A
S31508026D280C74002038740020585400203222A24BD2
S31508026D381A8008BD1E22A04B1A8008BD14229E4B33
S31508026D481A8008BD32229D4BA3F868209C4B93F9FA
S31508026D5800309C4A13709C4A13709C490A8822F090
S31508026D6803020A80032B19D0062B1AD0984A1388CD
S31508026D789BB243F0010313808F4A138801331380A9
S31508026D888F4B93F900308F4A127893420CD08D4A6A
S31508026D981370894A1388013B138008BDFFF752FD11
S31508026DA8E4E700F0FFFCE1E7844B1B8813F0010FC8
S31508026DB806D0884A138823F06F0343F02703138003
S31508026DC8814B93F90030032B07D0062B27D00023D3
S31508026DD8814A1360814A136001E0FFF74BFD804B35
S31508026DE81B8803F08F02072A23D003F08702062A94
S31508026DF82FD013F0820F3CD003F08603022B7FF4C0
S31508026E082EAF784B1A68784BC3F870210023724A5A
S31508026E181360724A13603C22674B1A8008BD00F059
S31508026E28E9FC724B1A68704BC3F86C21C3F87021D7
S31508026E38D5E7674A138823F001031B041B0C138042
S31508026E480023654A1360654A136028225A4B1A803A
S31508026E5808BD5F4A138823F001031B041B0C138021
S31508026E6800235D4A13605D4A13601E22524B1A803C
S31508026E7808BD574A138823F001031B041B0C138009
S31508026E880023554A1360554A136014224A4B1A803E
S31508026E9808BD23F06F0343F007034E4A13803C22CA
S31508026EA8464BA3F868203D22434B1A8008BD434B3C
S31508026EB81B8813F0040F17D0494B1B8803F082036B
S31508026EC8002B7FF4CCAE424A138823F001031B0435
S31508026ED81B0C1380112001F057FA122001F054FAFC
S31508026EE81422354B1A8008BD394A138823F0010340
S31508026EF81B041B0C1380112001F046FA122001F01C
S31508026F0843FA14222C4B1A8008BD314A138823F0F7
S31508026F1801031B041B0C138000232F4A13602F4AF4
S31508026F2813606E22244B1A8008BD244B1B8813F063
S31508026F38040F02D0002A3FF492AE254A138823F09A
S31508026F4801031B041B0C13806E221B4B1A8008BDF7
S31508026F5823F04F0343F008031E4A13806E22174B89
S31508026F68A3F868207022144B1A8008BDE2B11C4B9C
S31508026F781B8813F0800F3FD01D4B1B78002B7FF41C
S31508026F886EAE01211A4B197011490B889BB243F050
S31508026F9880030B8062B9174B1B78002B7FF45FAE10
S31508026FA81422054B1A8008BD1422034B1A8008BD01
S31508026FB86F22014B1A8008BD885300200CBA00209C
S31508026FC85012002080530020511200201874002005
S31508026FD888B90020985400200C74002038740020C0
S31508026FE85854002014740020E098002044740020A5
S31508026FF88453002000770020074B1B78002B3FF4A8
S315080270082EAE0022044B1A70044A138823F0800312
S315080270181B041B0C138022E68453002088B900201F
S3150802702808B5084B9A681AB90022074B1A6008BDB0
S31508027038596800238802890DFDF7E4FD024B18609A
S3150802704808BD00BF10120020247400202DE9F84359
S31508027058594B5A68002A34D0584BB3F89C309BB21D
S315080270687BB3554B9E6800253001310F801B61EBB7
S3150802707805014B0443EAD0334404204619466FF007
S3150802708801046FF000459D4208BF844220D30018C8
S3150802709843EB010101234A4C238000276FF00104C0
S315080270A86FF000459E468D4208BF844214D30018E5
S315080270B8494101331BB277462A2BF4DD40490B8036
S315080270C80CE000233F4A13603F4A1380BDE8F88361
S315080270D800213B4B198001E0002F68D13849B1F8E5
S315080270E8008008F1FF381FFA88F80FFA88F30B8030
S315080270F8F5172F01300147EA1671801B61EB050166
S315080271084C0444EAD034450428462146A3F120050E
S31508027118C3F1200401FA03F900FA05F549EA050953
S3150802712820FA04F449EA040900FA03F5234BB3F8EA
S315080271389C6036B2F717D11706FB01F302FB073331
S31508027148A6FB02671F4432463B4628464946FDF7D0
S3150802715859FDB0F1004F71F100032BDB00246FF0E3
S315080271680042002349104FEA3000013424B2824211
S3150802717873EB010EF6DBC4F12003B4F1200225FAFB
S3150802718804F009FA03F340EA03005CBF49FA02F27B
S31508027198104332463B4649FA04F1FDF733FD094BDB
S315080271A81860A8EB0404084B1C80BDE8F883044958
S315080271B80B8093E70024DEE71012002088AF002030
S315080271C886530020107400203474002038B50C4BFE
S315080271D89A681AB900220B4B1A6038BD0A4BB3F8DB
S315080271E89C40074B5868A4B2A0FB0401C2EB0212E2
S315080271F852000023FDF706FD024B186038BD00BF92
S31508027208101200202C74002088AF002010B5002424
S315080272180F4B1C800F4B1C600F4B1C600F4B1C60DE
S315080272280F4B1C600F4B1C600F4B1C600F4B1C60EE
S31508027238FFF7F6FEFFF70AFFFFF7C8FF00F0BEF9E9
S315080272480B4B1C800B4B1C8001220B4B1A7010BD72
S31508027258885300200C740020207400201C74002017
S3150802726814740020447400203874002028740020FE
S3150802727818740020825300203C740020F8B5094B84
S315080272885A686AB19B68C717A3FB004503FB0755EB
S3150802729829040023200441EA1441FDF7B3FCF8BD8A
S315080272A80020F8BD101200202DE9F8432A4B596828
S315080272B800294AD0294BB3F89C309BB2002B47D0F9
S315080272C8254B9B6800260F2202FB03F7B6F1004FEF
S315080272D877F1000337DB00246FF000484FF0000906
S315080272E87F104FEA3606013424B2B04579EB070314
S315080272F8F6DBA0FB068900FB0799184BB3F89C2016
S3150802730892B2174B1B689B0802FB03F2A2FB0123E6
S3150802731840464946FDF776FCA4F12006C4F1200545
S3150802732801FA04F300FA06F6334320FA05F52B4365
S3150802733800FA04F2B2F1005F73F10001A8BF002255
S315080273481046BDE8F8830024D3E70020BDE8F88391
S315080273580020BDE8F88300BF1012002088AF00207D
S31508027368B089002038B5FFF733FB7D4B1B8813F02D
S31508027378010F7C4A138814BF43F0100323F0100345
S315080273881380794B9B8A9BB2082B5CD0764B9B8AD7
S315080273989BB2092B57D0734A138823F400731380B8
S315080273A8724B1B78033BDBB2012B52D9704B1B7805
S315080273B813F0400F6F4BD3F888316F4A12684FEAB9
S315080273C8E2754FEAE37102FB01F103FB0511A2FB21
S315080273D803230B444FEA124242EA034218BF5242B7
S315080273E8664B1A6000F0F0F8654B1B8903F0070331
S315080273F8644A1360644B1C78002C00F085800022CE
S315080274081A70624B1868624B1B68624A12686249AC
S315080274180968914203D8984294BF002401245F4917
S3150802742809688A425CD35E4A106883425CD3FFF7CE
S315080274383BFF5C4B1860002C5BD15B4A138823F030
S31508027448040313805AE0474A138843F400731380E7
S31508027458A6E7434BB3F868309BB2322B05D0414AAC
S31508027468138843F480631380A0E7504B1B8813F4F0
S31508027478807F0FD03F4BD3F864312BB1394A138832
S3150802748823F48063138091E7364A138843F48063AA
S3150802749813808BE7374BD3F86421D3F868319A42BD
S315080274A8304A138814BF23F4806343F48063138035
S315080274B87CE72C4A138823F4006313802DE01320F3
S315080274C800F062FF38E0142000F05EFF3DE0152068
S315080274D800F000FE38BDFFF7E7FE324B186008E0F9
S315080274E82F4A10688342F6D21846FFF7DDFE2D4B5F
S315080274F818602D4A138843F0040313802C4B186826
S31508027508FFF7BCFE2B4B1860274B1D88002DD0D0E1
S31508027518144A138843F400631380274B1C88A54230
S315080275281DD06C401D8014F0010F05D015F0010F0F
S31508027538C5D0132000F0CEFD14F0020F05D015F0C1
S31508027548020FC0D0142000F0C5FD14F0040F06D0AF
S3150802755815F0040FBBD1152000F016FF38BD38BD4B
S315080275680CBA00209854002088AF00205112002037
S3150802757874540020E09800202C740020A45400209B
S31508027588308600205C5400203C7400208054002079
S315080275984012002048120020845400208C540020EF
S315080275A86C54002044740020187400205854002093
S315080275B86854002048740020825300200022014B98
S315080275C81A8070478E53002010B483B06D4B5B68DF
S315080275D89BB26D4A928912F0800F14BF00220F22BD
S315080275E8ADF80420BDF80420534003F00F03ADF8A4
S315080275F80630654B9B8913F01F0F23D10022634B74
S315080276081A80BDF80620624B1A805F4B9B8913F0D5
S31508027618010F4FD15C4B9B8913F0020F51D15A4B7C
S315080276289B8913F0040F50D1574B9B8913F0080F07
S315080276384FD1554B9B8913F0100F7BD01722534B0A
S315080276481A8077E0514B1B88172B73D801A252F878
S3150802765823F000BF0B7602083D7702083D77020839
S315080276683D7702083D7702083D7702083D7702080A
S315080276783D7702083D7702083D770208E376020855
S315080276883D7702083D7702083D7702083D770208EA
S315080276983D7702083D7702083D7702083D770208DA
S315080276A83D7702080F7702080F7702080F77020854
S315080276B80F7702080022374B1A800A22334B1A80A0
S315080276C838E01422314B1A8034E015222F4B1A80DF
S315080276D830E016222D4B1A802CE02E4B1B884BB312
S315080276E82D4B1A682D4B9A632D4A1388013313803A
S315080276F8254A938923F01F031B041B0C9381002236
S31508027708224B1A8016E0143B9BB2ADF80430BDF83A
S315080277180640BDF8042092B2BDF8041088B21C4B84
S315080277281B8863409BB2012101FA02F21340814089
S315080277388B4203D003B05DF8044B7047BDF8063098
S3150802774898B2BDF804309BB2BDF8042091B2012262
S3150802775802FA03F303408A40934204D0BDF806208E
S315080277680B4B1A80E6E70C4B1A680C4B9A63064AC7
S31508027778938923F01F031B041B0C93810022034BD6
S315080277881A80EBE73C86002088B900208E53002031
S315080277988C5300208A530020785400200CBA002003
S315080277A8A854002008B50C4A138823F450531380AA
S315080277B80A4B1A680A4BC3F86C21C3F87021094B9D
S315080277C81868FFF75BFD084B18600023074A136021
S315080277D8074A138008BD00BF985400204474002045
S315080277E8E098002068540020487400200C74002091
S315080277F84C74002010B4924B93F90020D31E1F2B09
S3150802780800F22484DFE813F020002000200020007C
S315080278182204220422042204220422042204220420
S315080278282204220422042204200020002000200028
S315080278382204220422042204220422042204220400
S31508027848220422047A037A037E4B1B883D2B00F214
S315080278581584DFE813F03E006A00130413041304C0
S315080278681304130413041304130445011304130419
S315080278781304130413041304130413041304260227
S315080278881304130413041304130413041304130428
S315080278981304130413041304130413041304130418
S315080278A81304130413041304130413041304130408
S315080278B8130413041304130413041D0313041304EF
S315080278C813041304130413041304130413044003BC
S315080278D849035D4B1B8813F4807F10D05B4B1B88CA
S315080278E813F0040F40F0CA83594B1B8813F4806FB0
S315080278F840F0C48343F48063554A1380BEE3544A6E
S31508027908128812F4806F03D022F4806250490A80E2
S3150802791813F0100F00F0B2834D4A138823F48053EC
S3150802792813800122474B1A80A8E34A4B1B8913F096
S31508027938040F61D0D31EDBB2012B1DD9132A43D0FB
S31508027948142A1BD0152A444B1868444B0CBF9B684B
S315080279585B68A0FB0301424B1B78C3F12004A3F121
S31508027968200220FA03F301FA04F4234321FA02F265
S3150802797813433C4A136018E0132A25D0364B186875
S31508027988364B5B68A0FB0301354B1B78C3F1200411
S31508027998A3F1200220FA03F301FA04F4234321FA95
S315080279A802F213435B422F4A13600A22254B1A80B6
S315080279B82D4B1B7813F0400F00F08D80294B1B685E
S315080279C85B422A4A136059E3234B1868234B9B6880
S315080279D8A0FB0301224B1B78C3F12004A3F1200262
S315080279E820FA03F301FA04F4234321FA02F21343B1
S315080279F85B421C4A1360D8E7D31EDBB2012B37D980
S31508027A08132A37D0142A4FD0162A144B0CBF986853
S31508027A185868114B1B68A0FB0301114B1B78C3F16D
S31508027A282004A3F1200220FA03F301FA04F42343FB
S31508027A3821FA02F213435B420A4A136030E000BF96
S31508027A48221200204C740020585400200CBA002038
S31508027A589854002030860020107400202412002032
S31508027A683474002094530020745400200C740020A7
S31508027A78142A19D0AA4B5868AA4B1B68A0FB0301FB
S31508027A88A94B1B78C3F12004A3F1200220FA03F3B9
S31508027A9801FA04F4234321FA02F21343A34A1360B0
S31508027AA81422A34B1A8083E79D4B98689D4B1B6843
S31508027AB8A0FB03019C4B1B78C3F12004A3F1200207
S31508027AC820FA03F301FA04F4234321FA02F21343D0
S31508027AD8964A1360E4E7954B1A68964B1A60CDE204
S31508027AE8954B1B8803F48873102B05D00023914AFB
S31508027AF813608F4A1380C1E2904B1B8913F0040F57
S31508027B0840F0BC82032A2CD0042A52D0052A6AD00D
S31508027B18062A00F08580132A00F09D80152A00F0AF
S31508027B289A80142A00F09E80162A37D17C4B9868C8
S31508027B387C4B1B68A0FB03017B4B1B78C3F1200413
S31508027B48A3F1200220FA03F301FA04F4234321FAE3
S31508027B5802F213435B42754A13601422744B1A8065
S31508027B681CE06F4B98686F4B1B68A0FB03016E4BB2
S31508027B781B78C3F12004A3F1200220FA03F301FAC1
S31508027B8804F4234321FA02F213435B42674A136059
S31508027B9800226B4B1A803222654B1A80694B1B7876
S31508027BA813F0400F78D0614B1B685B42614A136039
S31508027BB864E25B4B98685B4B1B68A0FB03015A4B54
S31508027BC81B78C3F12004A3F1200220FA03F301FA71
S31508027BD804F4234321FA02F21343544A1360142283
S31508027BE8534B1A80DAE74E4B98684E4B1B68A0FB34
S31508027BF803014D4B1B78C3F12004A3F1200220FA96
S31508027C0803F301FA04F4234321FA02F21343474A17
S31508027C18136000224A4B1A803222454B1A80BDE766
S31508027C283F4B98683F4B1B68A0FB03013E4B1B78EA
S31508027C38C3F12004A3F1200220FA03F301FA04F49B
S31508027C48234321FA02F213435B42384A1360142289
S31508027C58374B1A80A2E700223B4BDA603C22344BA8
S31508027C681A809BE72E4B98682E4B1B68A0FB0301CC
S31508027C782D4B1B78C3F12004A3F1200220FA03F343
S31508027C8801FA04F4234321FA02F21343274A13603A
S31508027C981422274B1A8081E7244B1A68254B1A6047
S31508027CA8ECE1254B1B8803F48873102B05D00023B7
S31508027CB8204A13601E4A1380E0E1204B1B8913F001
S31508027CC8040F00F0DB81032A40D0042A63D0052A70
S31508027CD87ED0062A00F09680132A00F0B18022F098
S31508027CE80203142B00F0C780152A49D10C4B986851
S31508027CF80C4B1B68A0FB03010B4B1B78C3F1200432
S31508027D08A3F1200220FA03F301FA04F4234321FA21
S31508027D1802F21343054A13600A22054B1A802FE01A
S31508027D282412002010740020347400209453002072
S31508027D384C7400200C740020585400203086002009
S31508027D48905300207454002080880020A14B98681C
S31508027D58A14B1B68A0FB0301A04B1B78C3F12004A7
S31508027D68A3F1200220FA03F301FA04F4234321FAC1
S31508027D7802F213435B429A4A13600A22994B1A8003
S31508027D88994B1B7813F0400F7DD0954B1B685B42C5
S31508027D98964A136072E18F4B98688F4B1B68A0FB53
S31508027DA803018E4B1B78C3F12004A3F1200220FAA3
S31508027DB803F301FA04F4234321FA02F21343884A25
S31508027DC8136000228A4B1A803222864B1A80D7E71A
S31508027DD8804B9868804B1B68A0FB03017F4B1B7876
S31508027DE8C3F12004A3F1200220FA03F301FA04F4EA
S31508027DF8234321FA02F21343794A13600A22794B7A
S31508027E081A80BDE7734B9868734B1B68A0FB03017E
S31508027E18724B1B78C3F12004A3F1200220FA03F35C
S31508027E2801FA04F4234321FA02F213435B426C4A29
S31508027E38136000226E4B1A8032226A4B1A809FE719
S31508027E48644B9868644B1B68A0FB0301634B1B7859
S31508027E58C3F12004A3F1200220FA03F301FA04F479
S31508027E68234321FA02F213435B425D4A13600A224C
S31508027E785C4B1A8084E75F4B1A685F4BDA603C22D0
S31508027E88584B1A807CE7564B1A68584B1A60F5E025
S31508027E985A4B1B8803F48873102B05D00023534AC0
S31508027EA81360504A1380E9E0514B1B88002B00F0F7
S31508027EB8E58000234E4A13804E4A11684E4AD1601D
S31508027EC84A4A13604E4A138843F4A05313803C2245
S31508027ED8444B1A80D2E04A4A138843F4A0531380C3
S31508027EE83D22404B1A80C9E0444B1B8813F0100FF9
S31508027EF840F0C48000223B4B1A80BFE0394B1B88EE
S31508027F08012B00F0818063B1022B40F0B7803B4B0E
S31508027F181B8813F0100F40F0B1800022314B1A80EB
S31508027F28ACE0364B1B8813F4807F10D0354B1B8880
S31508027F3813F0040F40F0A280314B1B8813F4806FAC
S31508027F4840F09C8043F480632D4A138096E02C49BE
S31508027F58098811F4806F03D021F4806128480180CA
S31508027F6813F0100F00F08A8025490B8823F48053F2
S31508027F780B80212A174B9868174B1B68A0FB03012D
S31508027F88164B1B78C3F12004A3F1200220FA03F347
S31508027F9801FA04F443EA040321FA02F243EA020361
S31508027FA808BF5B420E4A13600F4B1B7813F0400F4B
S31508027FB80BD00B4B1B685B420C4A136000220C4B16
S31508027FC81A800122074B1A8058E0054B1A68074B94
S31508027FD81A60F3E724120020107400203474002073
S31508027FE8945300204C740020745400200C7400200A
S31508027FF89053002048740020808800205854002096
S31508028008985400200CBA00201E4B1B8803F4887368
S31508028018102B05D000231C4A13601C4A13802DE036
S315080280281B4B1B88002B29D00023194A1380194A8F
S315080280381168194AD160144A1360184A138843F416
S31508028048A05313800222114B1A8017E00D4B1B8886
S3150802805813F4807F0FD113F0100F0CD00D4B1A684A
S315080280680D4BDA600D4B1B8813F4805F03D143F47A
S3150802807880530A4A13800022034B1A605DF8044BA0
S31508028088704700BF585400200C7400204C74002016
S3150802809890530020487400208088002098540020B5
S315080280A808B50B4B196811F0005F07D000230122A7
S315080280B821F06041104609F0CDF906E000231A4678
S315080280C8C1F30A01012009F0C5F9012008BD00BF5C
S315080280D81C77002070B41F2823D800F00705C0F3C0
S315080280E8C1021446144B995C45EA0103994212D017
S315080280F8012612490E7082B10F4A1355104B1B7886
S315080281084BB9104B33F810200F4B1A800F4B1870C7
S3150802811801220B4B1A7070BC7047B542EED0002488
S31508028128EAE7054B1A7842F002039A42F3D001218C
S31508028138024A11700024DFE7587400205C74002094
S3150802814854740020C486030898530020A0530020BC
S3150802815800B583B07E4B1B78002B39D17D4B1B6843
S3150802816813F0010F3DD17B4B1B6813F0020F41D167
S31508028178784B1B6813F0040F45D1764B1B6813F02E
S31508028188080F49D1734B1B6813F0100F4DD1724B68
S315080281981B78002B77D000226F4B1A706F4B1A7810
S315080281A812F0FE0F4AD15B78002B40F0CA806B4B5F
S315080281B89B78002B40F0B580684BDB78002B40F0A3
S315080281C8B080674B1B7803F0FE0103F0F003B0E0BA
S315080281D8012009F071F90028C0D000225C4B1A70F8
S315080281E8BCE71820FFF776FF5A4A136823F00103FB
S315080281F81360B8E71A20FFF76DFF564A136823F08B
S3150802820802031360B4E71B20FFF764FF514A136899
S3150802821823F004031360B0E71C20FFF75BFF4D4AFF
S31508028228136823F008031360ACE71D20FFF752FF13
S31508028238484A136823F010031360A8E7484B1B78CB
S3150802824843F0010123F00E0343F001034348407843
S3150802825800286ED043F01003414A1370404B1B782E
S3150802826803F09F023D49897881B162F07F023C4B4F
S315080282781A703C4B1B78DBB27F2B0CD0394B1B7818
S31508028288DBB2052B07D003B05DF804FB03F01F0326
S31508028298334A1370EDE7344B1B78002BF3D0334B74
S315080282A81B68334A12689B1A324A12883249A1FB5A
S315080282B80212B3EBD20FE6D300222B4B1A702B4BC2
S315080282C81A682B4B1A60224B1B7823B12B4B1A8838
S315080282D82B4B1A60D7E7294B1B88214A1178294A5A
S315080282E812788DF800301B0A8DF801308DF80210C5
S315080282F88DF8032000238DF804308DF805308DF8A3
S3150802830806308DF8073008226946012009F0B4F8C4
S31508028318012009F0D1F80028D8D101220C4B1A708D
S31508028328D4E70F4B1B7843F0010123F00E0343F001
S31508028338010312F0800F8DD121F01E01084B197026
S315080283488CE7074B1B7823F00E0343F0010381E7FA
S31508028358A5530020507400205C740020587400202D
S3150802836836780020F176002054740020848900208B
S315080283789C53002074770020CDCCCCCC985300208F
S31508028388DC770020A053002010B5C0F3C1021F28CD
S3150802839817D800F007030D49895C21EA03039942B5
S315080283A80ED001240A490C7008498B54094B1B78CC
S315080283B833B90022084B1A80084B1870054B1C70F3
S315080283C810BD0120FFF786FE10BD00BF58740020B5
S315080283D85C7400205474002098530020A05300208F
S315080283E8002800F0C38010B5437D012B2ED0002B40
S315080283F845D14468002C4AD05D4B1B689C424BD039
S315080284085C4B197851B15C4B1B7803F5E0639C42C7
S315080284184AD000230133DAB29142FBD8574B1B786C
S31508028428DBB2052B47D0554B1B78DBB27F2B5DD0C9
S31508028438524B1B78DBB2052B58D040F2E5739C42A7
S315080284481DD110F80C1B00F0EBFC18E041684C4BE8
S315080284585B6823F06043994212D0494A012053695E
S3150802846823F060438B420CD00130C0B21032042884
S31508028478F5D1444B1B7803F5E0638B4204D010BD53
S31508028488002003F099FE10BD01F092F910BD10F80C
S315080284980C1B01F0B3F810BD0346028913F80C1B2E
S315080284A8184603F04FFB10BD014611F80C2B0020A5
S315080284B800F0AEF910BD344B5B6823F060439C426A
S315080284C80CD0314901234A6922F06042944206D007
S315080284D80133DBB21031042BF5D1A4E70023014698
S315080284E811F80C2B184601F0A5FE10BD274B1B6880
S315080284F89C421BD0254B5B6A9C421FD0244B5B6867
S31508028508A3422BD0224B5B6A9C4296D1204B93F806
S315080285182830DBB2027D9A4208BF01238DD1014673
S3150802852811F80C2B184602F083FB10BD174B1B7962
S31508028538DBB2027D9A42DDD1002308E0134B93F899
S315080285482830DBB2027D9A4208BF0123D6D10146FA
S3150802855811F80C2B184603F0D3F910BD0C4B1B7AED
S31508028568DBB2027D9A42CDD10023D8E7704700BF15
S315080285787C7D00207C77002068740020F176002034
S315080285889C770020E676002034770020307D00208C
S31508028598F07C002008B5038846F27C018B423FD05E
S315080285A829D841F217018B4242D017D943F6FE71F0
S315080285B88B4241D043F6FF718B4247D043F6FC7192
S315080285C88B4254D18378002B51D1294B002183F849
S315080285D81611A3F8142101221A7008BD41F20C02D9
S315080285E8934221D041F20D02934203D10122214B33
S315080285F81A7008BD08BD46F2920293422ED00AD9CD
S3150802860846F29A0293420BD031D3A3F5C143453BAE
S31508028618012B05D908BDA3F5C143033B022B26D86E
S315080286280122154B1A7008BD0122124B1A7008BD91
S315080286380122104B1A7008BD8378C3B90C4B012165
S3150802864883F81611A3F81421197008BD837873B92B
S315080286580A4BA3F8442101229A7008BDFEF7E0FCEA
S31508028668FEF7F4FCFEF7B2FD0122034B1A7008BDA9
S31508028678CC750020F47600203C740020847400200F
S3150802868808B10020704708B5022008F0D9FD002372
S31508028698104A1370104A1380104B1B780BB9012025
S315080286A808BD00220E4B1A700E4B1A700E4B1B6829
S315080286B8190C0848017008480380C9B2134601F51F
S315080286C8E061022008F06EFE022008F09DFC0120F7
S315080286D808BD00BF68740020607400207C770020FB
S315080286E86C740020647400202477002038B50C4B7B
S315080286F81B784BB100240A4D2046FFF7C1FF013407
S31508028708E4B22B78A342F7D8064B197800231A46FF
S3150802871801F5E061032008F09DFE012038BD00BF7F
S315080287287C770020E6760020124B1B7813B10023CB
S315080287381846704700B583B00F4B1B788DF8003082
S3150802874800238DF801308DF802308DF80330019335
S3150802875801226946032008F08FFE032008F0ACFEC2
S31508028768034610B90123034A1370184603B05DF885
S3150802877804FB00BFB0530020F176002008B51B4B56
S315080287881B787BB11A4B1A781A4B1B8853B11A49AC
S31508028798097839B11949096819480068091A9942BC
S315080287A800D3FAB1174B1B885BB1174B1B784BB929
S315080287B8124B1B68154A12689B1A124A1288934268
S315080287C809D208BD032008F077FE0028F0D0002257
S315080287D80D4B1A70ECE7094B1A680C4B1A60FFF72F
S315080287E8A3FF08BD0122024B1A70DBE77C7700203B
S315080287F8697400206074002064740020848900204B
S31508028808A853002034780020B0530020AC53002027
S315080288180E4B1B78DBB2052B05D00C4B1B78DBB24B
S315080288287F2B00D07047012AFCD10B78002BF9D090
S31508028838074B1A54074B1A68074B43F8202000229D
S31508028848064B1A700A78064B1A54EBE7F17600209B
S315080288586474002084890020A853002069740020C3
S315080288686C74002010B50C4B1B7813B100242046F3
S3150802887810BD08220949112008F0FEFD0446002801
S31508028888F5D0112008F018FE18B90122024B1A7001
S31508028898EDE70446EBE700BFB353002074740020E3
S315080288A810B50024134B1C70134B1C70134B1C7009
S315080288B8134B1C70134B1C80134B1C70134B1C70E8
S315080288C8134B1C70134B1C70134B1C702346224601
S315080288D840F2E571122008F065FD122008F094FBB3
S315080288E82346224640F2E471112008F0B3FD01201E
S315080288F810BD00BFB3530020B2530020B153002065
S31508028908BD530020B4530020BC5300207F740020B6
S315080289187D740020807400207C74002008B58A4B78
S315080289281B78002B40F09880884B1B78012B00F0A7
S31508028938AD80002B00F09A80022B00F0C080844B91
S315080289481B78002B00F077810022814B1A70814B25
S315080289581B78043B7C2B00F26B81DFE813F0C0001E
S31508028968690169016901690169016901690169019F
S31508028978690169016901690185016901A501690137
S31508028988CF016901E501690169016901690169019D
S31508028998690169016901690169016901690169016F
S315080289A8690169016901690169016901690169015F
S315080289B8690169016901690169016901690169014F
S315080289C8690169016901690169016901690169013F
S315080289D8690169016901E40015012701390169017B
S315080289E8690169016901690169016901690169011F
S315080289F8690169016901690169016901690169010F
S31508028A0869016901690169016901F301040215022B
S31508028A182602370269016901690169016901690161
S31508028A2869016901690169016901690169016901DE
S31508028A3869016901690169016901690169016901CE
S31508028A4869016901690169016901690169016901BE
S31508028A586901690169015F01112008F02DFD0028E5
S31508028A683FF462AF0022384B1A705DE73A4B1B781F
S31508028A78002B3FF464AF0022374B1A70374B1A683B
S31508028A88374B1A600122314B1A7058E7334B1B6869
S31508028A98334A12689B1A334A12889342FFF44FAF35
S31508028AA82E4B1A682E4B1A6008F09CFA2E4B186839
S31508028AB808F066FC254A1378013313703FE7274BFB
S31508028AC81B68274A12689B1A264A12889342FFF499
S31508028AD836AF08F06BFA00221C4B1A702FE71D4BAB
S31508028AE85B78224A12789A4200F0A28083B9204A11
S31508028AF81370204A13701D4A13701F4B1A781F4B9E
S31508028B081B789A4200F0948001221D4B1A708FE056
S31508028B18012B40F08D800122144B1A70174B1A78D4
S31508028B28154B1A7084E00022114B1A70094A91787B
S31508028B38537803EB01239BB2124A5268934277D1C0
S31508028B4801220B4B1A7073E0B3530020BC53002062
S31508028B587F74002074740020B25300208489002090
S31508028B68B8530020B4530020707400207C74002087
S31508028B78BD530020B15300207E740020E6760020FB
S31508028B888074002080770020984B1B78012B4FD1E0
S31508028B98974B9A785B7803EB02239BB2954A9268BD
S31508028BA8934245D10222914B1A7041E08F4B1B78AA
S31508028BB8022B3DD18E4B9A785B7803EB02239BB244
S31508028BC88C4AD268934233D10322884B1A702FE013
S31508028BD8864B1B78032B2BD1854B9A785B7803EB4C
S31508028BE802239BB2834A1269934221D100227F4B00
S31508028BF81A700121804B1970804B1978804B1970AD
S31508028C08804B1968804B1960794B442119705A7040
S31508028C189A70DA705A60FFF725FE09E0744A917865
S31508028C28537803EB01239BB2724A1269934203D023
S31508028C380022764B1A7008BD00226C4B1A70012165
S31508028C486D4B19706D4B19786D4B19706D4B196808
S31508028C586D4B1960664B442119705A709A70DA700E
S31508028C685A60FFF7FFFDE3E7634B1B78012BDFD159
S31508028C785F4B5B785AB2002A0CDD614A13705C4B6B
S31508028C8811221A7000225A709A70DA705A60FFF71F
S31508028C98E9FDCDE7FF2BF0D0554B01225A70002289
S31508028CA89A70DA705A60F2E7534B1B78012BBFD1D8
S31508028CB84F4B5B78A3B94E4B9B78072B10D80121EB
S31508028CC8534A1170534A52F823204F4B1A60484B9D
S31508028CD813221A7000225A709A70DA705A600AE0D9
S31508028CE800224B4B1A70424B1321197001215970F5
S31508028CF89A70DA705A60FFF7B5FD99E73E4B1B780A
S31508028D08012B95D1424B1B78002B91D00122424B5D
S31508028D181A7000223E4B1A70354B9A785B7803EB29
S31508028D2802233E4A138083E7334B1B78012B7FF4D1
S31508028D387FAF2F4B00225A709A70DA705A60FFF783
S31508028D4891FD75E72C4B1B78012B7FF471AF284BE5
S31508028D5800225A709A70DA701A715A719A71DA710F
S31508028D68FFF780FD64E7244B1B78012B7FF460AF7D
S31508028D781F4B00225A709A70DA701A715A719A71D0
S31508028D88DA71FFF76FFD53E71B4B1B78012B7FF44C
S31508028D984FAF174B00225A709A70DA701A715A71C5
S31508028DA89A71DA71FFF75EFD42E7134B1B78012BBE
S31508028DB87FF43EAF0E4B00225A709A70DA701A7117
S31508028DC85A719A71DA71FFF74DFD31E70A4B1B782A
S31508028DD8012B7FF42DAF064B084A12785A700022E7
S31508028DE89A70DA705A60FFF73DFD21E7BD530020F5
S31508028DF874740020807700207C740020E6760020B0
S31508028E087E740020E8760020707400207D740020A5
S31508028E18B153002004870308B2530020B453002034
S31508028E28082900D07047074B1B78002BFAD102682D
S31508028E38054B1A6042685A600123044A1370014AAC
S31508028E481370EFE77D740020747400207F74002085
S31508028E580023044A1370044A13705370937001204E
S31508028E68704700BFC15300208474002000B583B040
S31508028E784C4B1B78012B1ED093B1022B5AD0642B6C
S31508028E8800F08280484B1A78484B1978484B18786C
S31508028E980DF0F4FB6422434B1A7003B05DF804FB29
S31508028EA8444B5B78002BF8D00022424B5A700122B9
S31508028EB83C4B1A70F1E73E4B1978012301F5C0625B
S31508028EC801F5B061002001F093FA30B90A22364B4F
S31508028ED81A703222334B1A70DFE7374B0122019296
S31508028EE8B3F841210092002243F6FE71104601F0BA
S31508028EF8BBFEC0B12F4B9A79A2F16403DBB2022BEF
S31508028F0802D801212D4B1970642A0CBF4FF4FA5264
S31508028F18FA222B4B1A602B4B1A682B4B1A60022221
S31508028F28204B1A70B9E70A221F4B1A7032221D4BB8
S31508028F381A70B2E71F4B9B78B3B11E4B00229A7080
S31508028F48B3F84411032906D80B22174B1A70322292
S31508028F58144B1A70A1E7023989B21C480DF0B2FB04
S31508028F686422104B1A7098E7164B1B68164A126841
S31508028F789B1A134A126893428FD30B220A4B1A700A
S31508028F883222084B1A7088E7002001F0C7FE002033
S31508028F9801F068FA0023074A1370084A1370014A4F
S31508028FA813707AE7C1530020BE530020BF5300202E
S31508028FB8C05300208474002087740020787D00201E
S31508028FC8C453002084890020C853002089740020CD
S31508028FD8184B1B7853BB032929D98A1CB2F5A07FDB
S31508028FE825DC10B40278144B1A704478134B1C709B
S31508028FF8104B134C2478DC701A7151B1431E114A6E
S315080290084C1E10FA84F413F8010F02F8010FA34252
S31508029018F9D1084A0231A2F8441101231370537090
S315080290280021917018465DF8044B704700231846CC
S31508029038704700BF84740020C0530020BF53002025
S31508029048E6760020887400200023044A1370044A2E
S315080290581370537093700120704700BFD1530020D4
S31508029068CC75002010B584B0524B1B78012B17D04B
S315080290784BB1032B77D0642B00F0968064224D4BB4
S315080290881A7004B010BD4C4B1B78002BF9D04A4A0B
S3150802909801235370D178494A1170464A1370F0E78A
S315080290A8454B5B78002BECD1434B9B78002BE8D1D8
S315080290B8414BB3F814314BB13F4B93F816314BB1C8
S315080290C8012B1FD032223B4B1A70DAE76422394B3E
S315080290D81A70D6E703AA002143F6FD7000F032FC9F
S315080290E818B93222334B1A70CBE7334B0022DA709F
S315080290F81A71B3F814310233039A938064222D4BFA
S315080291081A70BEE72C4B2E4A1278DA702B4A117857
S315080291181971012301F5C06201F5B061002001F059
S3150802912867F918B93222234B1A70AAE7254B012286
S315080291380192B3F81121023292B20092002243F642
S31508029148FF71104601F090FD38B10322194B1A70C7
S315080291581D4B1A681D4B1A6093E701F083F93222F0
S31508029168144B1A708DE71A4B5B7883B9164B1B6832
S31508029178164A12689B1AF92B83D9002001F0CEFDEC
S31508029188002001F06FF932220A4B1A7079E7002497
S315080291980F4B5C70204601F0C1FD204601F062F9CA
S315080291A86422044B1A706CE70023034A1370014AB7
S315080291B8137066E7D1530020CC750020D0530020DF
S315080291C8E6760020CF75002084890020CC5300203B
S315080291D8F07C0020704770477047000038B5D8B150
S315080291E8044680F080027E2A19D90D4607F0FAFE4F
S315080291F8284607F097FC034678B10023094A1370F4
S31508029208094A1470094A1560094A137000F01CFBCA
S3150802921807F0CCFE034600E00023184638BD0023B3
S31508029228FBE700BFD2530020E6760020E876002046
S31508029238F176002010B507F099FE7E4B1A887E4B08
S315080292485A877E4A1288DA867D4A12881A877D4A9A
S3150802925812889A877C4A1288DA877C4B1B78022BF3
S3150802926836D01CD9642B41D0652B00F09F80032B7E
S315080292781BD10022764B1A70FFF750FB754B1B78E9
S315080292889BB1754B1878754B1870754B1A88754BC0
S3150802929819680CF0FDFE64226C4B1A7005E073B16E
S315080292A8012B02D10222694B1A706F4B1B786F4A3F
S315080292B8A2F86230694B1B78A2F8603010BD6C4B75
S315080292C81B6813F0010FF0D00122604B1A70ECE705
S315080292D8FFF7E6FA0022644B1A70604B1B78FF2BDD
S315080292E80CBF03226422594B1A70DEE70121584B38
S315080292F81970604A604B1A608022604B1A60002215
S315080293085F4B1A605F4B1A60544B1B7803F1800453
S315080293185D4804605D4802805D4801705D490A60DF
S315080293285D49042008704A608A60CA600A615B4A15
S315080293380224147003F5C061516003F5B0639360A3
S31508029348147341F00051116143F000535361544BB1
S31508029358186000F0B9F802F067FBFEF7A1FEFFF7FE
S31508029368C5F900F093F900F0FDFD02F01BFC01F0C7
S31508029378E9FDFFF76DFDFFF767FEFFF7D5F97F22CF
S31508029388394B1A70474B1B7813B9454B1B682BB9CF
S315080293980022444B1A700522334B1A70FDF736FF22
S315080293A8FFF718FF6522294B1A707EE7294B1B78A7
S315080293B84BB93D4B1B78BBB100223B4B1A70642252
S315080293C8224B1A7071E7244B1878244B1870244BD1
S315080293D81A88244B19680CF05BFE00221D4B1A707A
S315080293E864221A4B1A7060E700F086F802F040FB0E
S315080293F8FEF7AEFEFFF7C2F900F0A2F900F07EFE0C
S3150802940802F066FC002001F039F8012001F036F86E
S31508029418002001F0CBFD012001F0C8FDFFF726FD6B
S31508029428FFF720FEFFF77AFAFDF79CFFFFF7D3FE50
S315080294383BE700BF7489002088B700206C890020A2
S31508029448788900207089002068890020D253002074
S31508029458E5760020807400207E740020E6760020D7
S31508029468F68F002004900020F17600200CBA00201E
S31508029478AC8B0020920102002C770020307700205E
S3150802948878770020987700201C77002074770020C8
S315080294987C77002024770020807700200477002034
S315080294A820770020EC760020E476002008B502F042
S315080294B813FB00F003F9002002F0E4F9012002F098
S315080294C8E1F9FFF789FE08BD10B50024094B1C709F
S315080294D8234622462146204607F0BCFF2346224653
S315080294E82146204607F05EFF204607F08DFD01203B
S315080294F810BD00BFD353002008B5254B1B78002B97
